{
  "_format": "hh-sol-artifact-1",
  "contractName": "LOGEDAO",
  "sourceName": "contracts/LOGEDAO.sol",
  "abi": [
    {
      "inputs": [
        {
          "internalType": "contract IVotes",
          "name": "_token",
          "type": "address"
        },
        {
          "internalType": "contract TimelockController",
          "name": "_timelock",
          "type": "address"
        }
      ],
      "stateMutability": "nonpayable",
      "type": "constructor"
    },
    {
      "inputs": [],
      "name": "CheckpointUnorderedInsertion",
      "type": "error"
    },
    {
      "inputs": [],
      "name": "FailedCall",
      "type": "error"
    },
    {
      "inputs": [
        {
          "internalType": "address",
          "name": "voter",
          "type": "address"
        }
      ],
      "name": "GovernorAlreadyCastVote",
      "type": "error"
    },
    {
      "inputs": [
        {
          "internalType": "uint256",
          "name": "proposalId",
          "type": "uint256"
        }
      ],
      "name": "GovernorAlreadyQueuedProposal",
      "type": "error"
    },
    {
      "inputs": [],
      "name": "GovernorDisabledDeposit",
      "type": "error"
    },
    {
      "inputs": [
        {
          "internalType": "address",
          "name": "proposer",
          "type": "address"
        },
        {
          "internalType": "uint256",
          "name": "votes",
          "type": "uint256"
        },
        {
          "internalType": "uint256",
          "name": "threshold",
          "type": "uint256"
        }
      ],
      "name": "GovernorInsufficientProposerVotes",
      "type": "error"
    },
    {
      "inputs": [
        {
          "internalType": "uint256",
          "name": "targets",
          "type": "uint256"
        },
        {
          "internalType": "uint256",
          "name": "calldatas",
          "type": "uint256"
        },
        {
          "internalType": "uint256",
          "name": "values",
          "type": "uint256"
        }
      ],
      "name": "GovernorInvalidProposalLength",
      "type": "error"
    },
    {
      "inputs": [
        {
          "internalType": "uint256",
          "name": "quorumNumerator",
          "type": "uint256"
        },
        {
          "internalType": "uint256",
          "name": "quorumDenominator",
          "type": "uint256"
        }
      ],
      "name": "GovernorInvalidQuorumFraction",
      "type": "error"
    },
    {
      "inputs": [
        {
          "internalType": "address",
          "name": "voter",
          "type": "address"
        }
      ],
      "name": "GovernorInvalidSignature",
      "type": "error"
    },
    {
      "inputs": [],
      "name": "GovernorInvalidVoteParams",
      "type": "error"
    },
    {
      "inputs": [],
      "name": "GovernorInvalidVoteType",
      "type": "error"
    },
    {
      "inputs": [
        {
          "internalType": "uint256",
          "name": "votingPeriod",
          "type": "uint256"
        }
      ],
      "name": "GovernorInvalidVotingPeriod",
      "type": "error"
    },
    {
      "inputs": [
        {
          "internalType": "uint256",
          "name": "proposalId",
          "type": "uint256"
        }
      ],
      "name": "GovernorNonexistentProposal",
      "type": "error"
    },
    {
      "inputs": [
        {
          "internalType": "uint256",
          "name": "proposalId",
          "type": "uint256"
        }
      ],
      "name": "GovernorNotQueuedProposal",
      "type": "error"
    },
    {
      "inputs": [
        {
          "internalType": "address",
          "name": "account",
          "type": "address"
        }
      ],
      "name": "GovernorOnlyExecutor",
      "type": "error"
    },
    {
      "inputs": [],
      "name": "GovernorQueueNotImplemented",
      "type": "error"
    },
    {
      "inputs": [
        {
          "internalType": "address",
          "name": "proposer",
          "type": "address"
        }
      ],
      "name": "GovernorRestrictedProposer",
      "type": "error"
    },
    {
      "inputs": [
        {
          "internalType": "uint256",
          "name": "proposalId",
          "type": "uint256"
        },
        {
          "internalType": "address",
          "name": "account",
          "type": "address"
        }
      ],
      "name": "GovernorUnableToCancel",
      "type": "error"
    },
    {
      "inputs": [
        {
          "internalType": "uint256",
          "name": "proposalId",
          "type": "uint256"
        },
        {
          "internalType": "enum IGovernor.ProposalState",
          "name": "current",
          "type": "uint8"
        },
        {
          "internalType": "bytes32",
          "name": "expectedStates",
          "type": "bytes32"
        }
      ],
      "name": "GovernorUnexpectedProposalState",
      "type": "error"
    },
    {
      "inputs": [
        {
          "internalType": "address",
          "name": "account",
          "type": "address"
        },
        {
          "internalType": "uint256",
          "name": "currentNonce",
          "type": "uint256"
        }
      ],
      "name": "InvalidAccountNonce",
      "type": "error"
    },
    {
      "inputs": [],
      "name": "InvalidShortString",
      "type": "error"
    },
    {
      "inputs": [
        {
          "internalType": "uint8",
          "name": "bits",
          "type": "uint8"
        },
        {
          "internalType": "uint256",
          "name": "value",
          "type": "uint256"
        }
      ],
      "name": "SafeCastOverflowedUintDowncast",
      "type": "error"
    },
    {
      "inputs": [
        {
          "internalType": "string",
          "name": "str",
          "type": "string"
        }
      ],
      "name": "StringTooLong",
      "type": "error"
    },
    {
      "anonymous": false,
      "inputs": [],
      "name": "EIP712DomainChanged",
      "type": "event"
    },
    {
      "anonymous": false,
      "inputs": [
        {
          "indexed": false,
          "internalType": "uint256",
          "name": "proposalId",
          "type": "uint256"
        }
      ],
      "name": "ProposalCanceled",
      "type": "event"
    },
    {
      "anonymous": false,
      "inputs": [
        {
          "indexed": false,
          "internalType": "uint256",
          "name": "proposalId",
          "type": "uint256"
        },
        {
          "indexed": false,
          "internalType": "address",
          "name": "proposer",
          "type": "address"
        },
        {
          "indexed": false,
          "internalType": "address[]",
          "name": "targets",
          "type": "address[]"
        },
        {
          "indexed": false,
          "internalType": "uint256[]",
          "name": "values",
          "type": "uint256[]"
        },
        {
          "indexed": false,
          "internalType": "string[]",
          "name": "signatures",
          "type": "string[]"
        },
        {
          "indexed": false,
          "internalType": "bytes[]",
          "name": "calldatas",
          "type": "bytes[]"
        },
        {
          "indexed": false,
          "internalType": "uint256",
          "name": "voteStart",
          "type": "uint256"
        },
        {
          "indexed": false,
          "internalType": "uint256",
          "name": "voteEnd",
          "type": "uint256"
        },
        {
          "indexed": false,
          "internalType": "string",
          "name": "description",
          "type": "string"
        }
      ],
      "name": "ProposalCreated",
      "type": "event"
    },
    {
      "anonymous": false,
      "inputs": [
        {
          "indexed": false,
          "internalType": "uint256",
          "name": "proposalId",
          "type": "uint256"
        }
      ],
      "name": "ProposalExecuted",
      "type": "event"
    },
    {
      "anonymous": false,
      "inputs": [
        {
          "indexed": false,
          "internalType": "uint256",
          "name": "proposalId",
          "type": "uint256"
        },
        {
          "indexed": false,
          "internalType": "uint256",
          "name": "etaSeconds",
          "type": "uint256"
        }
      ],
      "name": "ProposalQueued",
      "type": "event"
    },
    {
      "anonymous": false,
      "inputs": [
        {
          "indexed": false,
          "internalType": "uint256",
          "name": "oldProposalThreshold",
          "type": "uint256"
        },
        {
          "indexed": false,
          "internalType": "uint256",
          "name": "newProposalThreshold",
          "type": "uint256"
        }
      ],
      "name": "ProposalThresholdSet",
      "type": "event"
    },
    {
      "anonymous": false,
      "inputs": [
        {
          "indexed": false,
          "internalType": "uint256",
          "name": "oldQuorumNumerator",
          "type": "uint256"
        },
        {
          "indexed": false,
          "internalType": "uint256",
          "name": "newQuorumNumerator",
          "type": "uint256"
        }
      ],
      "name": "QuorumNumeratorUpdated",
      "type": "event"
    },
    {
      "anonymous": false,
      "inputs": [
        {
          "indexed": false,
          "internalType": "address",
          "name": "oldTimelock",
          "type": "address"
        },
        {
          "indexed": false,
          "internalType": "address",
          "name": "newTimelock",
          "type": "address"
        }
      ],
      "name": "TimelockChange",
      "type": "event"
    },
    {
      "anonymous": false,
      "inputs": [
        {
          "indexed": true,
          "internalType": "address",
          "name": "voter",
          "type": "address"
        },
        {
          "indexed": false,
          "internalType": "uint256",
          "name": "proposalId",
          "type": "uint256"
        },
        {
          "indexed": false,
          "internalType": "uint8",
          "name": "support",
          "type": "uint8"
        },
        {
          "indexed": false,
          "internalType": "uint256",
          "name": "weight",
          "type": "uint256"
        },
        {
          "indexed": false,
          "internalType": "string",
          "name": "reason",
          "type": "string"
        }
      ],
      "name": "VoteCast",
      "type": "event"
    },
    {
      "anonymous": false,
      "inputs": [
        {
          "indexed": true,
          "internalType": "address",
          "name": "voter",
          "type": "address"
        },
        {
          "indexed": false,
          "internalType": "uint256",
          "name": "proposalId",
          "type": "uint256"
        },
        {
          "indexed": false,
          "internalType": "uint8",
          "name": "support",
          "type": "uint8"
        },
        {
          "indexed": false,
          "internalType": "uint256",
          "name": "weight",
          "type": "uint256"
        },
        {
          "indexed": false,
          "internalType": "string",
          "name": "reason",
          "type": "string"
        },
        {
          "indexed": false,
          "internalType": "bytes",
          "name": "params",
          "type": "bytes"
        }
      ],
      "name": "VoteCastWithParams",
      "type": "event"
    },
    {
      "anonymous": false,
      "inputs": [
        {
          "indexed": false,
          "internalType": "uint256",
          "name": "oldVotingDelay",
          "type": "uint256"
        },
        {
          "indexed": false,
          "internalType": "uint256",
          "name": "newVotingDelay",
          "type": "uint256"
        }
      ],
      "name": "VotingDelaySet",
      "type": "event"
    },
    {
      "anonymous": false,
      "inputs": [
        {
          "indexed": false,
          "internalType": "uint256",
          "name": "oldVotingPeriod",
          "type": "uint256"
        },
        {
          "indexed": false,
          "internalType": "uint256",
          "name": "newVotingPeriod",
          "type": "uint256"
        }
      ],
      "name": "VotingPeriodSet",
      "type": "event"
    },
    {
      "inputs": [],
      "name": "BALLOT_TYPEHASH",
      "outputs": [
        {
          "internalType": "bytes32",
          "name": "",
          "type": "bytes32"
        }
      ],
      "stateMutability": "view",
      "type": "function"
    },
    {
      "inputs": [],
      "name": "CLOCK_MODE",
      "outputs": [
        {
          "internalType": "string",
          "name": "",
          "type": "string"
        }
      ],
      "stateMutability": "view",
      "type": "function"
    },
    {
      "inputs": [],
      "name": "COUNTING_MODE",
      "outputs": [
        {
          "internalType": "string",
          "name": "",
          "type": "string"
        }
      ],
      "stateMutability": "pure",
      "type": "function"
    },
    {
      "inputs": [],
      "name": "EXTENDED_BALLOT_TYPEHASH",
      "outputs": [
        {
          "internalType": "bytes32",
          "name": "",
          "type": "bytes32"
        }
      ],
      "stateMutability": "view",
      "type": "function"
    },
    {
      "inputs": [
        {
          "internalType": "address[]",
          "name": "targets",
          "type": "address[]"
        },
        {
          "internalType": "uint256[]",
          "name": "values",
          "type": "uint256[]"
        },
        {
          "internalType": "bytes[]",
          "name": "calldatas",
          "type": "bytes[]"
        },
        {
          "internalType": "bytes32",
          "name": "descriptionHash",
          "type": "bytes32"
        }
      ],
      "name": "cancel",
      "outputs": [
        {
          "internalType": "uint256",
          "name": "",
          "type": "uint256"
        }
      ],
      "stateMutability": "nonpayable",
      "type": "function"
    },
    {
      "inputs": [
        {
          "internalType": "uint256",
          "name": "proposalId",
          "type": "uint256"
        },
        {
          "internalType": "uint8",
          "name": "support",
          "type": "uint8"
        }
      ],
      "name": "castVote",
      "outputs": [
        {
          "internalType": "uint256",
          "name": "",
          "type": "uint256"
        }
      ],
      "stateMutability": "nonpayable",
      "type": "function"
    },
    {
      "inputs": [
        {
          "internalType": "uint256",
          "name": "proposalId",
          "type": "uint256"
        },
        {
          "internalType": "uint8",
          "name": "support",
          "type": "uint8"
        },
        {
          "internalType": "address",
          "name": "voter",
          "type": "address"
        },
        {
          "internalType": "bytes",
          "name": "signature",
          "type": "bytes"
        }
      ],
      "name": "castVoteBySig",
      "outputs": [
        {
          "internalType": "uint256",
          "name": "",
          "type": "uint256"
        }
      ],
      "stateMutability": "nonpayable",
      "type": "function"
    },
    {
      "inputs": [
        {
          "internalType": "uint256",
          "name": "proposalId",
          "type": "uint256"
        },
        {
          "internalType": "uint8",
          "name": "support",
          "type": "uint8"
        },
        {
          "internalType": "string",
          "name": "reason",
          "type": "string"
        }
      ],
      "name": "castVoteWithReason",
      "outputs": [
        {
          "internalType": "uint256",
          "name": "",
          "type": "uint256"
        }
      ],
      "stateMutability": "nonpayable",
      "type": "function"
    },
    {
      "inputs": [
        {
          "internalType": "uint256",
          "name": "proposalId",
          "type": "uint256"
        },
        {
          "internalType": "uint8",
          "name": "support",
          "type": "uint8"
        },
        {
          "internalType": "string",
          "name": "reason",
          "type": "string"
        },
        {
          "internalType": "bytes",
          "name": "params",
          "type": "bytes"
        }
      ],
      "name": "castVoteWithReasonAndParams",
      "outputs": [
        {
          "internalType": "uint256",
          "name": "",
          "type": "uint256"
        }
      ],
      "stateMutability": "nonpayable",
      "type": "function"
    },
    {
      "inputs": [
        {
          "internalType": "uint256",
          "name": "proposalId",
          "type": "uint256"
        },
        {
          "internalType": "uint8",
          "name": "support",
          "type": "uint8"
        },
        {
          "internalType": "address",
          "name": "voter",
          "type": "address"
        },
        {
          "internalType": "string",
          "name": "reason",
          "type": "string"
        },
        {
          "internalType": "bytes",
          "name": "params",
          "type": "bytes"
        },
        {
          "internalType": "bytes",
          "name": "signature",
          "type": "bytes"
        }
      ],
      "name": "castVoteWithReasonAndParamsBySig",
      "outputs": [
        {
          "internalType": "uint256",
          "name": "",
          "type": "uint256"
        }
      ],
      "stateMutability": "nonpayable",
      "type": "function"
    },
    {
      "inputs": [],
      "name": "clock",
      "outputs": [
        {
          "internalType": "uint48",
          "name": "",
          "type": "uint48"
        }
      ],
      "stateMutability": "view",
      "type": "function"
    },
    {
      "inputs": [],
      "name": "eip712Domain",
      "outputs": [
        {
          "internalType": "bytes1",
          "name": "fields",
          "type": "bytes1"
        },
        {
          "internalType": "string",
          "name": "name",
          "type": "string"
        },
        {
          "internalType": "string",
          "name": "version",
          "type": "string"
        },
        {
          "internalType": "uint256",
          "name": "chainId",
          "type": "uint256"
        },
        {
          "internalType": "address",
          "name": "verifyingContract",
          "type": "address"
        },
        {
          "internalType": "bytes32",
          "name": "salt",
          "type": "bytes32"
        },
        {
          "internalType": "uint256[]",
          "name": "extensions",
          "type": "uint256[]"
        }
      ],
      "stateMutability": "view",
      "type": "function"
    },
    {
      "inputs": [
        {
          "internalType": "address[]",
          "name": "targets",
          "type": "address[]"
        },
        {
          "internalType": "uint256[]",
          "name": "values",
          "type": "uint256[]"
        },
        {
          "internalType": "bytes[]",
          "name": "calldatas",
          "type": "bytes[]"
        },
        {
          "internalType": "bytes32",
          "name": "descriptionHash",
          "type": "bytes32"
        }
      ],
      "name": "execute",
      "outputs": [
        {
          "internalType": "uint256",
          "name": "",
          "type": "uint256"
        }
      ],
      "stateMutability": "payable",
      "type": "function"
    },
    {
      "inputs": [
        {
          "internalType": "address[]",
          "name": "targets",
          "type": "address[]"
        },
        {
          "internalType": "uint256[]",
          "name": "values",
          "type": "uint256[]"
        },
        {
          "internalType": "bytes[]",
          "name": "calldatas",
          "type": "bytes[]"
        },
        {
          "internalType": "bytes32",
          "name": "descriptionHash",
          "type": "bytes32"
        }
      ],
      "name": "getProposalId",
      "outputs": [
        {
          "internalType": "uint256",
          "name": "",
          "type": "uint256"
        }
      ],
      "stateMutability": "view",
      "type": "function"
    },
    {
      "inputs": [
        {
          "internalType": "address",
          "name": "account",
          "type": "address"
        },
        {
          "internalType": "uint256",
          "name": "timepoint",
          "type": "uint256"
        }
      ],
      "name": "getVotes",
      "outputs": [
        {
          "internalType": "uint256",
          "name": "",
          "type": "uint256"
        }
      ],
      "stateMutability": "view",
      "type": "function"
    },
    {
      "inputs": [
        {
          "internalType": "address",
          "name": "account",
          "type": "address"
        },
        {
          "internalType": "uint256",
          "name": "timepoint",
          "type": "uint256"
        },
        {
          "internalType": "bytes",
          "name": "params",
          "type": "bytes"
        }
      ],
      "name": "getVotesWithParams",
      "outputs": [
        {
          "internalType": "uint256",
          "name": "",
          "type": "uint256"
        }
      ],
      "stateMutability": "view",
      "type": "function"
    },
    {
      "inputs": [
        {
          "internalType": "uint256",
          "name": "proposalId",
          "type": "uint256"
        },
        {
          "internalType": "address",
          "name": "account",
          "type": "address"
        }
      ],
      "name": "hasVoted",
      "outputs": [
        {
          "internalType": "bool",
          "name": "",
          "type": "bool"
        }
      ],
      "stateMutability": "view",
      "type": "function"
    },
    {
      "inputs": [
        {
          "internalType": "address[]",
          "name": "targets",
          "type": "address[]"
        },
        {
          "internalType": "uint256[]",
          "name": "values",
          "type": "uint256[]"
        },
        {
          "internalType": "bytes[]",
          "name": "calldatas",
          "type": "bytes[]"
        },
        {
          "internalType": "bytes32",
          "name": "descriptionHash",
          "type": "bytes32"
        }
      ],
      "name": "hashProposal",
      "outputs": [
        {
          "internalType": "uint256",
          "name": "",
          "type": "uint256"
        }
      ],
      "stateMutability": "pure",
      "type": "function"
    },
    {
      "inputs": [],
      "name": "name",
      "outputs": [
        {
          "internalType": "string",
          "name": "",
          "type": "string"
        }
      ],
      "stateMutability": "view",
      "type": "function"
    },
    {
      "inputs": [
        {
          "internalType": "address",
          "name": "owner",
          "type": "address"
        }
      ],
      "name": "nonces",
      "outputs": [
        {
          "internalType": "uint256",
          "name": "",
          "type": "uint256"
        }
      ],
      "stateMutability": "view",
      "type": "function"
    },
    {
      "inputs": [
        {
          "internalType": "address",
          "name": "",
          "type": "address"
        },
        {
          "internalType": "address",
          "name": "",
          "type": "address"
        },
        {
          "internalType": "uint256[]",
          "name": "",
          "type": "uint256[]"
        },
        {
          "internalType": "uint256[]",
          "name": "",
          "type": "uint256[]"
        },
        {
          "internalType": "bytes",
          "name": "",
          "type": "bytes"
        }
      ],
      "name": "onERC1155BatchReceived",
      "outputs": [
        {
          "internalType": "bytes4",
          "name": "",
          "type": "bytes4"
        }
      ],
      "stateMutability": "nonpayable",
      "type": "function"
    },
    {
      "inputs": [
        {
          "internalType": "address",
          "name": "",
          "type": "address"
        },
        {
          "internalType": "address",
          "name": "",
          "type": "address"
        },
        {
          "internalType": "uint256",
          "name": "",
          "type": "uint256"
        },
        {
          "internalType": "uint256",
          "name": "",
          "type": "uint256"
        },
        {
          "internalType": "bytes",
          "name": "",
          "type": "bytes"
        }
      ],
      "name": "onERC1155Received",
      "outputs": [
        {
          "internalType": "bytes4",
          "name": "",
          "type": "bytes4"
        }
      ],
      "stateMutability": "nonpayable",
      "type": "function"
    },
    {
      "inputs": [
        {
          "internalType": "address",
          "name": "",
          "type": "address"
        },
        {
          "internalType": "address",
          "name": "",
          "type": "address"
        },
        {
          "internalType": "uint256",
          "name": "",
          "type": "uint256"
        },
        {
          "internalType": "bytes",
          "name": "",
          "type": "bytes"
        }
      ],
      "name": "onERC721Received",
      "outputs": [
        {
          "internalType": "bytes4",
          "name": "",
          "type": "bytes4"
        }
      ],
      "stateMutability": "nonpayable",
      "type": "function"
    },
    {
      "inputs": [
        {
          "internalType": "uint256",
          "name": "proposalId",
          "type": "uint256"
        }
      ],
      "name": "proposalDeadline",
      "outputs": [
        {
          "internalType": "uint256",
          "name": "",
          "type": "uint256"
        }
      ],
      "stateMutability": "view",
      "type": "function"
    },
    {
      "inputs": [
        {
          "internalType": "uint256",
          "name": "proposalId",
          "type": "uint256"
        }
      ],
      "name": "proposalEta",
      "outputs": [
        {
          "internalType": "uint256",
          "name": "",
          "type": "uint256"
        }
      ],
      "stateMutability": "view",
      "type": "function"
    },
    {
      "inputs": [
        {
          "internalType": "uint256",
          "name": "proposalId",
          "type": "uint256"
        }
      ],
      "name": "proposalNeedsQueuing",
      "outputs": [
        {
          "internalType": "bool",
          "name": "",
          "type": "bool"
        }
      ],
      "stateMutability": "view",
      "type": "function"
    },
    {
      "inputs": [
        {
          "internalType": "uint256",
          "name": "proposalId",
          "type": "uint256"
        }
      ],
      "name": "proposalProposer",
      "outputs": [
        {
          "internalType": "address",
          "name": "",
          "type": "address"
        }
      ],
      "stateMutability": "view",
      "type": "function"
    },
    {
      "inputs": [
        {
          "internalType": "uint256",
          "name": "proposalId",
          "type": "uint256"
        }
      ],
      "name": "proposalSnapshot",
      "outputs": [
        {
          "internalType": "uint256",
          "name": "",
          "type": "uint256"
        }
      ],
      "stateMutability": "view",
      "type": "function"
    },
    {
      "inputs": [],
      "name": "proposalThreshold",
      "outputs": [
        {
          "internalType": "uint256",
          "name": "",
          "type": "uint256"
        }
      ],
      "stateMutability": "view",
      "type": "function"
    },
    {
      "inputs": [
        {
          "internalType": "uint256",
          "name": "proposalId",
          "type": "uint256"
        }
      ],
      "name": "proposalVotes",
      "outputs": [
        {
          "internalType": "uint256",
          "name": "againstVotes",
          "type": "uint256"
        },
        {
          "internalType": "uint256",
          "name": "forVotes",
          "type": "uint256"
        },
        {
          "internalType": "uint256",
          "name": "abstainVotes",
          "type": "uint256"
        }
      ],
      "stateMutability": "view",
      "type": "function"
    },
    {
      "inputs": [
        {
          "internalType": "address[]",
          "name": "targets",
          "type": "address[]"
        },
        {
          "internalType": "uint256[]",
          "name": "values",
          "type": "uint256[]"
        },
        {
          "internalType": "bytes[]",
          "name": "calldatas",
          "type": "bytes[]"
        },
        {
          "internalType": "string",
          "name": "description",
          "type": "string"
        }
      ],
      "name": "propose",
      "outputs": [
        {
          "internalType": "uint256",
          "name": "",
          "type": "uint256"
        }
      ],
      "stateMutability": "nonpayable",
      "type": "function"
    },
    {
      "inputs": [
        {
          "internalType": "address[]",
          "name": "targets",
          "type": "address[]"
        },
        {
          "internalType": "uint256[]",
          "name": "values",
          "type": "uint256[]"
        },
        {
          "internalType": "bytes[]",
          "name": "calldatas",
          "type": "bytes[]"
        },
        {
          "internalType": "bytes32",
          "name": "descriptionHash",
          "type": "bytes32"
        }
      ],
      "name": "queue",
      "outputs": [
        {
          "internalType": "uint256",
          "name": "",
          "type": "uint256"
        }
      ],
      "stateMutability": "nonpayable",
      "type": "function"
    },
    {
      "inputs": [
        {
          "internalType": "uint256",
          "name": "timepoint",
          "type": "uint256"
        }
      ],
      "name": "quorum",
      "outputs": [
        {
          "internalType": "uint256",
          "name": "",
          "type": "uint256"
        }
      ],
      "stateMutability": "view",
      "type": "function"
    },
    {
      "inputs": [],
      "name": "quorumDenominator",
      "outputs": [
        {
          "internalType": "uint256",
          "name": "",
          "type": "uint256"
        }
      ],
      "stateMutability": "view",
      "type": "function"
    },
    {
      "inputs": [
        {
          "internalType": "uint256",
          "name": "timepoint",
          "type": "uint256"
        }
      ],
      "name": "quorumNumerator",
      "outputs": [
        {
          "internalType": "uint256",
          "name": "",
          "type": "uint256"
        }
      ],
      "stateMutability": "view",
      "type": "function"
    },
    {
      "inputs": [],
      "name": "quorumNumerator",
      "outputs": [
        {
          "internalType": "uint256",
          "name": "",
          "type": "uint256"
        }
      ],
      "stateMutability": "view",
      "type": "function"
    },
    {
      "inputs": [
        {
          "internalType": "address",
          "name": "target",
          "type": "address"
        },
        {
          "internalType": "uint256",
          "name": "value",
          "type": "uint256"
        },
        {
          "internalType": "bytes",
          "name": "data",
          "type": "bytes"
        }
      ],
      "name": "relay",
      "outputs": [],
      "stateMutability": "payable",
      "type": "function"
    },
    {
      "inputs": [
        {
          "internalType": "uint256",
          "name": "newProposalThreshold",
          "type": "uint256"
        }
      ],
      "name": "setProposalThreshold",
      "outputs": [],
      "stateMutability": "nonpayable",
      "type": "function"
    },
    {
      "inputs": [
        {
          "internalType": "uint48",
          "name": "newVotingDelay",
          "type": "uint48"
        }
      ],
      "name": "setVotingDelay",
      "outputs": [],
      "stateMutability": "nonpayable",
      "type": "function"
    },
    {
      "inputs": [
        {
          "internalType": "uint32",
          "name": "newVotingPeriod",
          "type": "uint32"
        }
      ],
      "name": "setVotingPeriod",
      "outputs": [],
      "stateMutability": "nonpayable",
      "type": "function"
    },
    {
      "inputs": [
        {
          "internalType": "uint256",
          "name": "proposalId",
          "type": "uint256"
        }
      ],
      "name": "state",
      "outputs": [
        {
          "internalType": "enum IGovernor.ProposalState",
          "name": "",
          "type": "uint8"
        }
      ],
      "stateMutability": "view",
      "type": "function"
    },
    {
      "inputs": [
        {
          "internalType": "bytes4",
          "name": "interfaceId",
          "type": "bytes4"
        }
      ],
      "name": "supportsInterface",
      "outputs": [
        {
          "internalType": "bool",
          "name": "",
          "type": "bool"
        }
      ],
      "stateMutability": "view",
      "type": "function"
    },
    {
      "inputs": [],
      "name": "timelock",
      "outputs": [
        {
          "internalType": "address",
          "name": "",
          "type": "address"
        }
      ],
      "stateMutability": "view",
      "type": "function"
    },
    {
      "inputs": [],
      "name": "token",
      "outputs": [
        {
          "internalType": "contract IERC5805",
          "name": "",
          "type": "address"
        }
      ],
      "stateMutability": "view",
      "type": "function"
    },
    {
      "inputs": [
        {
          "internalType": "uint256",
          "name": "newQuorumNumerator",
          "type": "uint256"
        }
      ],
      "name": "updateQuorumNumerator",
      "outputs": [],
      "stateMutability": "nonpayable",
      "type": "function"
    },
    {
      "inputs": [
        {
          "internalType": "contract TimelockController",
          "name": "newTimelock",
          "type": "address"
        }
      ],
      "name": "updateTimelock",
      "outputs": [],
      "stateMutability": "nonpayable",
      "type": "function"
    },
    {
      "inputs": [],
      "name": "version",
      "outputs": [
        {
          "internalType": "string",
          "name": "",
          "type": "string"
        }
      ],
      "stateMutability": "view",
      "type": "function"
    },
    {
      "inputs": [],
      "name": "votingDelay",
      "outputs": [
        {
          "internalType": "uint256",
          "name": "",
          "type": "uint256"
        }
      ],
      "stateMutability": "view",
      "type": "function"
    },
    {
      "inputs": [],
      "name": "votingPeriod",
      "outputs": [
        {
          "internalType": "uint256",
          "name": "",
          "type": "uint256"
        }
      ],
      "stateMutability": "view",
      "type": "function"
    },
    {
      "stateMutability": "payable",
      "type": "receive"
    }
  ],
  "bytecode": "0x610180604052348015610010575f80fd5b50604051614d81380380614d8183398101604081905261002f91610725565b80601e83600161b2fa6b06765c793fa10079d0000000604051806040016040528060078152602001664c4f474544414f60c81b8152508061007461017760201b60201c565b61007e825f610192565b6101205261008d816001610192565b61014052815160208084019190912060e052815190820120610100524660a05261011960e05161010051604080517f8b73c3c69bb8fe3d512ecc4cf759cc79239f7b179b0ffacaa9a75d522b39400f60208201529081019290925260608201524660808201523060a08201525f9060c00160405160208183030381529060405280519060200120905090565b60805250503060c052600361012e82826107f5565b5061013a9050836101c4565b6101438261022a565b61014c816102ce565b5050506001600160a01b0316610160526101658161030f565b5061016f816103a4565b50505061094b565b6040805180820190915260018152603160f81b602082015290565b5f6020835110156101ad576101a68361040d565b90506101be565b816101b884826107f5565b5060ff90505b92915050565b6008546040805165ffffffffffff928316815291831660208301527fc565b045403dc03c2eea82b81a0465edad9e2e7fc4d97e11421c209da93d7a93910160405180910390a16008805465ffffffffffff191665ffffffffffff92909216919091179055565b8063ffffffff165f036102575760405163f1cfbf0560e01b81525f60048201526024015b60405180910390fd5b6008546040805163ffffffff66010000000000009093048316815291831660208301527f7e3f7f0708a84de9203036abaa450dccc85ad5ff52f78c170f3edb55cf5e8828910160405180910390a16008805463ffffffff90921666010000000000000263ffffffff60301b19909216919091179055565b60075460408051918252602082018390527fccb45da8d5717e6c4544694297c4ba5cf151d455c9bb0ed4fc7a38411bc05461910160405180910390a1600755565b60648082111561033c5760405163243e544560e01b8152600481018390526024810182905260440161024e565b5f61034561044a565b9050610364610352610463565b61035b856104dd565b600a9190610514565b505060408051828152602081018590527f0553476bf02ef2726e8ce5ced78d63e26e602e4a2257b1f559418e24b4633997910160405180910390a1505050565b600b54604080516001600160a01b03928316815291831660208301527f08f74ea46ef7894f65eabfb5e6e695de773a000b47c529ab559178069b226401910160405180910390a1600b80546001600160a01b0319166001600160a01b0392909216919091179055565b5f80829050601f81511115610437578260405163305a27a960e01b815260040161024e91906108af565b8051610442826108e4565b179392505050565b5f610455600a61052e565b6001600160d01b0316905090565b5f61046e6101605190565b6001600160a01b03166391ddadf46040518163ffffffff1660e01b8152600401602060405180830381865afa9250505080156104c7575060408051601f3d908101601f191682019092526104c491810190610907565b60015b6104d8576104d3610576565b905090565b919050565b5f6001600160d01b03821115610510576040516306dfcc6560e41b815260d060048201526024810183905260440161024e565b5090565b5f80610521858585610580565b915091505b935093915050565b80545f90801561056d576105548361054760018461092c565b5f91825260209091200190565b54660100000000000090046001600160d01b031661056f565b5f5b9392505050565b5f6104d3436106dc565b82545f908190801561067f575f61059c8761054760018561092c565b805490915065ffffffffffff80821691660100000000000090046001600160d01b03169088168211156105e257604051632520601d60e01b815260040160405180910390fd5b8765ffffffffffff168265ffffffffffff160361061e57825465ffffffffffff1666010000000000006001600160d01b03891602178355610671565b6040805180820190915265ffffffffffff808a1682526001600160d01b03808a1660208085019182528d54600181018f555f8f815291909120945191519092166601000000000000029216919091179101555b945085935061052692505050565b50506040805180820190915265ffffffffffff80851682526001600160d01b0380851660208085019182528854600181018a555f8a8152918220955192519093166601000000000000029190931617920191909155905081610526565b5f65ffffffffffff821115610510576040516306dfcc6560e41b8152603060048201526024810183905260440161024e565b6001600160a01b0381168114610722575f80fd5b50565b5f8060408385031215610736575f80fd5b82516107418161070e565b60208401519092506107528161070e565b809150509250929050565b634e487b7160e01b5f52604160045260245ffd5b600181811c9082168061078557607f821691505b6020821081036107a357634e487b7160e01b5f52602260045260245ffd5b50919050565b601f8211156107f057805f5260205f20601f840160051c810160208510156107ce5750805b601f840160051c820191505b818110156107ed575f81556001016107da565b50505b505050565b81516001600160401b0381111561080e5761080e61075d565b6108228161081c8454610771565b846107a9565b6020601f821160018114610854575f831561083d5750848201515b5f19600385901b1c1916600184901b1784556107ed565b5f84815260208120601f198516915b828110156108835787850151825560209485019460019092019101610863565b50848210156108a057868401515f19600387901b60f8161c191681555b50505050600190811b01905550565b602081525f82518060208401528060208501604085015e5f604082850101526040601f19601f83011684010191505092915050565b805160208083015191908110156107a3575f1960209190910360031b1b16919050565b5f60208284031215610917575f80fd5b815165ffffffffffff8116811461056f575f80fd5b818103818111156101be57634e487b7160e01b5f52601160045260245ffd5b60805160a05160c05160e051610100516101205161014051610160516143bf6109c25f395f81816109c101528181610dcd0152818161119a0152818161145f0152611ec901525f611e0d01525f611de101525f612dff01525f612dd701525f612d3201525f612d5c01525f612d8601526143bf5ff3fe6080604052600436106102a8575f3560e01c80637ecebe001161016f578063bc197c81116100d8578063deaaa7cc11610092578063ece40cc11161006d578063ece40cc114610956578063f23a6e6114610975578063f8ce560a14610994578063fc0c546a146109b3575f80fd5b8063deaaa7cc146108e5578063e540d01d14610918578063eb9019d414610937575f80fd5b8063bc197c8114610813578063c01f9e3714610832578063c28bc2fa14610851578063c59057e414610864578063d33219b414610883578063dd4e2ba5146108a0575f80fd5b8063a7713a7011610129578063a7713a7014610758578063a890c9101461076c578063a8f8a6681461078b578063a9a95294146107aa578063ab58fb8e146107c9578063b58131b0146107ff575f80fd5b80637ecebe001461068157806384b0196e146106b55780638ff262e3146106dc57806391ddadf4146106fb57806397c3d334146107265780639a802a6d14610739575f80fd5b806343859632116102115780635b8d0e0d116101cb5780635b8d0e0d146105c75780635f398a14146105e657806360c4247f1461060557806379051887146106245780637b3c71d3146106435780637d5e81e214610662575f80fd5b806343859632146104ca578063452115d6146105125780634bf5d7e914610531578063544ffc9c1461054557806354fd4d501461057f57806356781388146105a8575f80fd5b8063160cbed711610262578063160cbed7146104065780632656227d146104255780632d63f693146104385780632fe3e261146104575780633932abb11461048a5780633e4f49e61461049e575f80fd5b806301ffc9a7146102e357806302a251a31461031757806306f3f9e61461034257806306fdde0314610361578063143489d014610382578063150b7a02146103ce575f80fd5b366102df57306102b66109e5565b6001600160a01b0316146102dd57604051637485328f60e11b815260040160405180910390fd5b005b5f80fd5b3480156102ee575f80fd5b506103026102fd3660046133a4565b6109fd565b60405190151581526020015b60405180910390f35b348015610322575f80fd5b50600854600160301b900463ffffffff165b60405190815260200161030e565b34801561034d575f80fd5b506102dd61035c3660046133cb565b610a0d565b34801561036c575f80fd5b50610375610a21565b60405161030e9190613410565b34801561038d575f80fd5b506103b661039c3660046133cb565b5f908152600460205260409020546001600160a01b031690565b6040516001600160a01b03909116815260200161030e565b3480156103d9575f80fd5b506103ed6103e83660046134f9565b610ab1565b6040516001600160e01b0319909116815260200161030e565b348015610411575f80fd5b506103346104203660046136bf565b610af3565b6103346104333660046136bf565b610bbf565b348015610443575f80fd5b506103346104523660046133cb565b610d27565b348015610462575f80fd5b506103347f3e83946653575f9a39005e1545185629e92736b7528ab20ca3816f315424a81181565b348015610495575f80fd5b50610334610d47565b3480156104a9575f80fd5b506104bd6104b83660046133cb565b610d59565b60405161030e9190613786565b3480156104d5575f80fd5b506103026104e4366004613794565b5f8281526009602090815260408083206001600160a01b038516845260030190915290205460ff1692915050565b34801561051d575f80fd5b5061033461052c3660046136bf565b610d63565b34801561053c575f80fd5b50610375610dc9565b348015610550575f80fd5b5061056461055f3660046133cb565b610e89565b6040805193845260208401929092529082015260600161030e565b34801561058a575f80fd5b506040805180820190915260018152603160f81b6020820152610375565b3480156105b3575f80fd5b506103346105c23660046137d2565b610eae565b3480156105d2575f80fd5b506103346105e1366004613840565b610ed5565b3480156105f1575f80fd5b506103346106003660046138fc565b610f92565b348015610610575f80fd5b5061033461061f3660046133cb565b610fda565b34801561062f575f80fd5b506102dd61063e366004613990565b610fe6565b34801561064e575f80fd5b5061033461065d3660046139ab565b610ff7565b34801561066d575f80fd5b5061033461067c366004613a00565b611047565b34801561068c575f80fd5b5061033461069b366004613abc565b6001600160a01b03165f9081526002602052604090205490565b3480156106c0575f80fd5b506106c96110fd565b60405161030e9796959493929190613b11565b3480156106e7575f80fd5b506103346106f6366004613b80565b61113f565b348015610706575f80fd5b5061070f611197565b60405165ffffffffffff909116815260200161030e565b348015610731575f80fd5b506064610334565b348015610744575f80fd5b50610334610753366004613bcd565b61121e565b348015610763575f80fd5b50610334611234565b348015610777575f80fd5b506102dd610786366004613abc565b61124d565b348015610796575f80fd5b506103346107a53660046136bf565b61125e565b3480156107b5575f80fd5b506103026107c43660046133cb565b61126b565b3480156107d4575f80fd5b506103346107e33660046133cb565b5f9081526004602052604090206001015465ffffffffffff1690565b34801561080a575f80fd5b50610334611273565b34801561081e575f80fd5b506103ed61082d366004613c21565b61127d565b34801561083d575f80fd5b5061033461084c3660046133cb565b6112c0565b6102dd61085f366004613cb8565b611302565b34801561086f575f80fd5b5061033461087e3660046136bf565b61137e565b34801561088e575f80fd5b50600b546001600160a01b03166103b6565b3480156108ab575f80fd5b506040805180820190915260208082527f737570706f72743d627261766f2671756f72756d3d666f722c6162737461696e90820152610375565b3480156108f0575f80fd5b506103347ff2aad550cf55f045cb27e9c559f9889fdfb6e6cdaa032301d6ea397784ae51d781565b348015610923575f80fd5b506102dd610932366004613cf7565b6113b7565b348015610942575f80fd5b50610334610951366004613d1a565b6113c8565b348015610961575f80fd5b506102dd6109703660046133cb565b6113e7565b348015610980575f80fd5b506103ed61098f366004613d44565b6113f8565b34801561099f575f80fd5b506103346109ae3660046133cb565b61143b565b3480156109be575f80fd5b507f00000000000000000000000000000000000000000000000000000000000000006103b6565b5f6109f8600b546001600160a01b031690565b905090565b5f610a07826114d8565b92915050565b610a15611542565b610a1e816115bb565b50565b606060038054610a3090613d9b565b80601f0160208091040260200160405190810160405280929190818152602001828054610a5c90613d9b565b8015610aa75780601f10610a7e57610100808354040283529160200191610aa7565b820191905f5260205f20905b815481529060010190602001808311610a8a57829003601f168201915b5050505050905090565b5f30610abb6109e5565b6001600160a01b031614610ae257604051637485328f60e11b815260040160405180910390fd5b50630a85bd0160e11b949350505050565b5f80610b018686868661125e565b9050610b1681610b116004611650565b611672565b505f610b2582888888886116af565b905065ffffffffffff811615610b9c575f82815260046020908152604091829020600101805465ffffffffffff191665ffffffffffff85169081179091558251858152918201527f9a2e42fd6722813d69113e7d0079d3d940171428df7373df9c7f7617cfda2892910160405180910390a1610bb5565b604051634844252360e11b815260040160405180910390fd5b5095945050505050565b5f80610bcd8686868661125e565b9050610bed81610bdd6005611650565b610be76004611650565b17611672565b505f818152600460205260409020805460ff60f01b1916600160f01b17905530610c156109e5565b6001600160a01b031614610c9e575f5b8651811015610c9c57306001600160a01b0316878281518110610c4a57610c4a613dd3565b60200260200101516001600160a01b031603610c9457610c94858281518110610c7557610c75613dd3565b60200260200101518051906020012060056116bd90919063ffffffff16565b600101610c25565b505b610cab818787878761171e565b30610cb46109e5565b6001600160a01b031614158015610ce057506005546001600160801b03808216600160801b9092041614155b15610cea575f6005555b6040518181527f712ae1383f79ac853f8d882153778e0260ef8f03b504e2866e0593e04d2b291f906020015b60405180910390a195945050505050565b5f90815260046020526040902054600160a01b900465ffffffffffff1690565b5f6109f860085465ffffffffffff1690565b5f610a0782611732565b5f80610d718686868661125e565b905033610d7e828261186b565b610db257604051638fe5d8a960e01b8152600481018390526001600160a01b03821660248201526044015b60405180910390fd5b610dbe878787876118b0565b979650505050505050565b60607f00000000000000000000000000000000000000000000000000000000000000006001600160a01b0316634bf5d7e96040518163ffffffff1660e01b81526004015f60405180830381865afa925050508015610e4857506040513d5f823e601f3d908101601f19168201604052610e459190810190613de7565b60015b610e84575060408051808201909152601d81527f6d6f64653d626c6f636b6e756d6265722666726f6d3d64656661756c74000000602082015290565b919050565b5f818152600960205260409020805460018201546002909201549091905b9193909250565b5f80339050610ecd84828560405180602001604052805f8152506118bd565b949350505050565b5f610f1b88888888888080601f0160208091040260200160405190810160405280939291908181526020018383808284375f920191909152508a92508991506118de9050565b610f43576040516394ab6c0760e01b81526001600160a01b0387166004820152602401610da9565b610f8688878988888080601f0160208091040260200160405190810160405280939291908181526020018383808284375f920191909152508a92506119ab915050565b98975050505050505050565b5f80339050610dbe87828888888080601f0160208091040260200160405190810160405280939291908181526020018383808284375f920191909152508a92506119ab915050565b5f610a07600a83611a89565b610fee611542565b610a1e81611ad6565b5f8033905061103d86828787878080601f0160208091040260200160405190810160405280939291908181526020018383808284375f920191909152506118bd92505050565b9695505050505050565b5f336110538184611b3c565b61107b5760405163d9b3955760e01b81526001600160a01b0382166004820152602401610da9565b5f611084611273565b905080156110f0575f6110b283600161109b611197565b6110a59190613e6f565b65ffffffffffff166113c8565b9050818110156110ee57604051636121770b60e11b81526001600160a01b03841660048201526024810182905260448101839052606401610da9565b505b610dbe8787878786611bc0565b5f6060805f805f606061110e611dda565b611116611e06565b604080515f80825260208201909252600f60f81b9b939a50919850469750309650945092509050565b5f61114c85858585611e33565b611174576040516394ab6c0760e01b81526001600160a01b0384166004820152602401610da9565b61118e85848660405180602001604052805f8152506118bd565b95945050505050565b5f7f00000000000000000000000000000000000000000000000000000000000000006001600160a01b03166391ddadf46040518163ffffffff1660e01b8152600401602060405180830381865afa925050508015611212575060408051601f3d908101601f1916820190925261120f91810190613e8d565b60015b610e84576109f8611ebc565b5f61122a848484611ec6565b90505b9392505050565b5f61123f600a611f59565b6001600160d01b0316905090565b611255611542565b610a1e81611f9d565b5f61118e8585858561137e565b5f6001610a07565b5f6109f860075490565b5f306112876109e5565b6001600160a01b0316146112ae57604051637485328f60e11b815260040160405180910390fd5b5063bc197c8160e01b95945050505050565b5f818152600460205260408120546112f490600160d01b810463ffffffff1690600160a01b900465ffffffffffff16613ea8565b65ffffffffffff1692915050565b61130a611542565b5f80856001600160a01b0316858585604051611327929190613ec6565b5f6040518083038185875af1925050503d805f8114611361576040519150601f19603f3d011682016040523d82523d5f602084013e611366565b606091505b50915091506113758282612006565b50505050505050565b5f848484846040516020016113969493929190613f68565b60408051601f19818403018152919052805160209091012095945050505050565b6113bf611542565b610a1e81612022565b5f61122d83836113e260408051602081019091525f815290565b611ec6565b6113ef611542565b610a1e816120be565b5f306114026109e5565b6001600160a01b03161461142957604051637485328f60e11b815260040160405180910390fd5b5063f23a6e6160e01b95945050505050565b604051632394e7a360e21b8152600481018290525f90610a07906001600160a01b037f00000000000000000000000000000000000000000000000000000000000000001690638e539e8c90602401602060405180830381865afa1580156114a4573d5f803e3d5ffd5b505050506040513d601f19601f820116820180604052508101906114c89190613fb2565b6114d184610fda565b60646120ff565b5f6001600160e01b031982166366defe7760e11b148061150857506001600160e01b031982166332a2ad4360e11b145b8061152357506001600160e01b03198216630271189760e51b145b80610a0757506301ffc9a760e01b6001600160e01b0319831614610a07565b3361154b6109e5565b6001600160a01b031614611574576040516347096e4760e01b8152336004820152602401610da9565b3061157d6109e5565b6001600160a01b0316146115b9575f803660405161159c929190613ec6565b604051809103902090505b806115b260056121af565b036115a757505b565b6064808211156115e85760405163243e544560e01b81526004810183905260248101829052604401610da9565b5f6115f1611234565b90506116106115fe611197565b6116078561221c565b600a9190612253565b505060408051828152602081018590527f0553476bf02ef2726e8ce5ced78d63e26e602e4a2257b1f559418e24b4633997910160405180910390a1505050565b5f81600781111561166357611663613752565b600160ff919091161b92915050565b5f8061167d84610d59565b90505f8361168a83611650565b160361122d578381846040516331b75e4d60e01b8152600401610da993929190613fc9565b5f61103d868686868661226d565b81546001600160801b03600160801b8204811691811660018301909116036116e9576116e960416123fe565b6001600160801b038082165f90815260018086016020526040909120939093558354919092018216600160801b029116179055565b61172b858585858561240f565b5050505050565b5f8061173d8361249f565b9050600581600781111561175357611753613752565b1461175e5792915050565b5f838152600c60205260409081902054600b549151632c258a9f60e11b81526004810182905290916001600160a01b03169063584b153e90602401602060405180830381865afa1580156117b4573d5f803e3d5ffd5b505050506040513d601f19601f820116820180604052508101906117d89190613feb565b156117e7575060059392505050565b600b54604051632ab0f52960e01b8152600481018390526001600160a01b0390911690632ab0f52990602401602060405180830381865afa15801561182e573d5f803e3d5ffd5b505050506040513d601f19601f820116820180604052508101906118529190613feb565b15611861575060079392505050565b5060029392505050565b5f8061187684610d59565b600781111561188757611887613752565b14801561122d5750505f91825260046020526040909120546001600160a01b0391821691161490565b5f61118e858585856125d0565b5f61118e858585856118d960408051602081019091525f815290565b6119ab565b5f610dbe856119a57f3e83946653575f9a39005e1545185629e92736b7528ab20ca3816f315424a8118a8a8a6119308c6001600160a01b03165f90815260026020526040902080546001810190915590565b8b516020808e01919091208c518d83012060405161198a98979695949301968752602087019590955260ff9390931660408601526001600160a01b03919091166060850152608084015260a083015260c082015260e00190565b60405160208183030381529060405280519060200120612667565b84612693565b5f6119ba86610b116001611650565b505f6119cf866119c989610d27565b85611ec6565b90505f6119df8888888588612703565b905083515f03611a3557866001600160a01b03167fb8e138887d0aa13bab447e82de9d5c1777041ecd21ca36ba824ff1e6c07ddda489888489604051611a28949392919061400a565b60405180910390a2610dbe565b866001600160a01b03167fe2babfbac5889a709b63bb7f598b324e08bc5a4fb9ec647fb3cbc9ec07eb87128988848989604051611a76959493929190614031565b60405180910390a2979650505050505050565b5f805f611a95856127ff565b9250925050838265ffffffffffff161115611ac257611abd611ab685612857565b8690612889565b611ac4565b805b6001600160d01b031695945050505050565b6008546040805165ffffffffffff928316815291831660208301527fc565b045403dc03c2eea82b81a0465edad9e2e7fc4d97e11421c209da93d7a93910160405180910390a16008805465ffffffffffff191665ffffffffffff92909216919091179055565b80515f906034811015611b53576001915050610a07565b60131981840101516001600160b01b03198116692370726f706f7365723d60b01b14611b8457600192505050610a07565b5f80611b9486602a86038661292b565b91509150811580610dbe5750866001600160a01b0316816001600160a01b031614979650505050505050565b5f611bd4868686868051906020012061125e565b905084518651141580611be957508351865114155b80611bf357508551155b15611c2857855184518651604051630447b05d60e41b8152600481019390935260248301919091526044820152606401610da9565b5f81815260046020526040902054600160a01b900465ffffffffffff1615611c715780611c5482610d59565b6040516331b75e4d60e01b8152610da99291905f90600401613fc9565b5f611c7a610d47565b611c82611197565b65ffffffffffff16611c94919061406a565b90505f611cae60085463ffffffff600160301b9091041690565b5f84815260046020526040902080546001600160a01b0319166001600160a01b038716178155909150611ce083612857565b815465ffffffffffff91909116600160a01b0265ffffffffffff60a01b19909116178155611d0d826129d4565b815463ffffffff91909116600160d01b0263ffffffff60d01b1990911617815588517f7d84a6263ae0d98d3329bd7b46bb4e8d6f98cd35a7adb45c274c8b7fd5ebd5e090859087908c908c906001600160401b03811115611d7057611d70613436565b604051908082528060200260200182016040528015611da357816020015b6060815260200190600190039081611d8e5790505b508c89611db08a8261406a565b8e604051611dc69998979695949392919061407d565b60405180910390a150505095945050505050565b60606109f87f00000000000000000000000000000000000000000000000000000000000000005f612a04565b60606109f87f00000000000000000000000000000000000000000000000000000000000000006001612a04565b5f61118e836119a57ff2aad550cf55f045cb27e9c559f9889fdfb6e6cdaa032301d6ea397784ae51d7888888611e858a6001600160a01b03165f90815260026020526040902080546001810190915590565b60408051602081019690965285019390935260ff90911660608401526001600160a01b0316608083015260a082015260c00161198a565b5f6109f843612857565b5f7f0000000000000000000000000000000000000000000000000000000000000000604051630748d63560e31b81526001600160a01b038681166004830152602482018690529190911690633a46b1a890604401602060405180830381865afa158015611f35573d5f803e3d5ffd5b505050506040513d601f19601f8201168201806040525081019061122a9190613fb2565b80545f908015611f9557611f7f83611f72600184614158565b5f91825260209091200190565b54600160301b90046001600160d01b031661122d565b5f9392505050565b600b54604080516001600160a01b03928316815291831660208301527f08f74ea46ef7894f65eabfb5e6e695de773a000b47c529ab559178069b226401910160405180910390a1600b80546001600160a01b0319166001600160a01b0392909216919091179055565b60608261201b5761201682612aad565b610a07565b5080610a07565b8063ffffffff165f0361204a5760405163f1cfbf0560e01b81525f6004820152602401610da9565b6008546040805163ffffffff600160301b9093048316815291831660208301527f7e3f7f0708a84de9203036abaa450dccc85ad5ff52f78c170f3edb55cf5e8828910160405180910390a16008805463ffffffff909216600160301b0269ffffffff00000000000019909216919091179055565b60075460408051918252602082018390527fccb45da8d5717e6c4544694297c4ba5cf151d455c9bb0ed4fc7a38411bc05461910160405180910390a1600755565b5f805f61210c8686612ad5565b91509150815f03612130578381816121265761212661416b565b049250505061122d565b8184116121475761214760038515026011186123fe565b5f848688095f868103871696879004966002600389028118808a02820302808a02820302808a02820302808a02820302808a02820302808a02909103029181900381900460010185841190960395909502919093039390930492909217029150509392505050565b80545f906001600160801b0380821691600160801b90041681036121d7576121d760316123fe565b6001600160801b038181165f908152600185810160205260408220805492905585546fffffffffffffffffffffffffffffffff19169301909116919091179092555090565b5f6001600160d01b0382111561224f576040516306dfcc6560e41b815260d0600482015260248101839052604401610da9565b5090565b5f80612260858585612af1565b915091505b935093915050565b5f80600b5f9054906101000a90046001600160a01b03166001600160a01b031663f27a0c926040518163ffffffff1660e01b8152600401602060405180830381865afa1580156122bf573d5f803e3d5ffd5b505050506040513d601f19601f820116820180604052508101906122e39190613fb2565b90505f3060601b6bffffffffffffffffffffffff19168418600b5460405163b1c5f42760e01b81529192506001600160a01b03169063b1c5f42790612334908a908a908a905f90889060040161417f565b602060405180830381865afa15801561234f573d5f803e3d5ffd5b505050506040513d601f19601f820116820180604052508101906123739190613fb2565b5f898152600c602052604080822092909255600b5491516308f2a0bb60e41b81526001600160a01b0390921691638f2a0bb0916123bd918b918b918b919088908a906004016141cc565b5f604051808303815f87803b1580156123d4575f80fd5b505af11580156123e6573d5f803e3d5ffd5b50505050610f8682426123f9919061406a565b612857565b634e487b715f52806020526024601cfd5b600b546001600160a01b031663e38335e5348686865f3060601b6bffffffffffffffffffffffff191688186040518763ffffffff1660e01b815260040161245a95949392919061417f565b5f604051808303818588803b158015612471575f80fd5b505af1158015612483573d5f803e3d5ffd5b5050505f9687525050600c602052505060408320929092555050565b5f818152600460205260408120805460ff600160f01b8204811691600160f81b90041681156124d357506007949350505050565b80156124e457506002949350505050565b5f6124ee86610d27565b9050805f0361251357604051636ad0607560e01b815260048101879052602401610da9565b5f61251c611197565b65ffffffffffff16905080821061253957505f9695505050505050565b5f612543886112c0565b905081811061255a57506001979650505050505050565b61256388612c41565b158061258257505f888152600960205260409020805460019091015411155b1561259557506003979650505050505050565b5f8881526004602052604090206001015465ffffffffffff165f036125c257506004979650505050505050565b506005979650505050505050565b5f806125de86868686612c77565b5f818152600c60205260409020549091508015610bb557600b5460405163c4d252f560e01b8152600481018390526001600160a01b039091169063c4d252f5906024015f604051808303815f87803b158015612638575f80fd5b505af115801561264a573d5f803e3d5ffd5b5050505f838152600c602052604081205550509050949350505050565b5f610a07612673612d26565b8360405161190160f01b8152600281019290925260228201526042902090565b5f836001600160a01b03163b5f036126f1575f806126b18585612e4f565b5090925090505f8160038111156126ca576126ca613752565b1480156126e85750856001600160a01b0316826001600160a01b0316145b9250505061122d565b6126fc848484612e98565b905061122d565b5f8581526009602090815260408083206001600160a01b03881684526003810190925282205460ff1615612755576040516371c6af4960e01b81526001600160a01b0387166004820152602401610da9565b6001600160a01b0386165f9081526003820160205260409020805460ff1916600117905560ff851661279e5783815f015f828254612793919061406a565b909155506127f49050565b5f1960ff8616016127bc5783816001015f828254612793919061406a565b60011960ff8616016127db5783816002015f828254612793919061406a565b6040516303599be160e11b815260040160405180910390fd5b509195945050505050565b80545f908190819080820361281d575f805f93509350935050610ea7565b5f61282d86611f72600185614158565b546001955065ffffffffffff81169450600160301b90046001600160d01b03169250610ea7915050565b5f65ffffffffffff82111561224f576040516306dfcc6560e41b81526030600482015260248101839052604401610da9565b81545f90818160058111156128e5575f6128a284612f6e565b6128ac9085614158565b5f8881526020902090915081015465ffffffffffff90811690871610156128d5578091506128e3565b6128e081600161406a565b92505b505b5f6128f2878785856130c6565b9050801561291f5761290987611f72600184614158565b54600160301b90046001600160d01b0316610dbe565b505f9695505050505050565b5f80845183118061293b57508284115b1561294a57505f905080612265565b5f61295685600161406a565b8411801561297e575061060f60f31b6129728787016020015190565b6001600160f01b031916145b90505f61298e8215156002614223565b61299990602861406a565b9050806129a68787614158565b036129c7575f806129b8898989613125565b90965094506122659350505050565b5f80935093505050612265565b5f63ffffffff82111561224f576040516306dfcc6560e41b81526020600482015260248101839052604401610da9565b606060ff8314612a1e57612a17836131e6565b9050610a07565b818054612a2a90613d9b565b80601f0160208091040260200160405190810160405280929190818152602001828054612a5690613d9b565b8015612aa15780601f10612a7857610100808354040283529160200191612aa1565b820191905f5260205f20905b815481529060010190602001808311612a8457829003601f168201915b50505050509050610a07565b805115612abc57805160208201fd5b60405163d6bda27560e01b815260040160405180910390fd5b5f805f1983850993909202808410938190039390930393915050565b82545f9081908015612be7575f612b0d87611f72600185614158565b805490915065ffffffffffff80821691600160301b90046001600160d01b0316908816821115612b5057604051632520601d60e01b815260040160405180910390fd5b8765ffffffffffff168265ffffffffffff1603612b8957825465ffffffffffff16600160301b6001600160d01b03891602178355612bd9565b6040805180820190915265ffffffffffff808a1682526001600160d01b03808a1660208085019182528d54600181018f555f8f81529190912094519151909216600160301b029216919091179101555b945085935061226592505050565b50506040805180820190915265ffffffffffff80851682526001600160d01b0380851660208085019182528854600181018a555f8a815291822095519251909316600160301b029190931617920191909155905081612265565b5f81815260096020526040812060028101546001820154612c62919061406a565b612c6e6109ae85610d27565b11159392505050565b5f80612c858686868661125e565b9050612cd381612c956007611650565b612c9f6006611650565b612ca96002611650565b6001612cb660078261423a565b612cc190600261432e565b612ccb9190614158565b181818611672565b505f818152600460205260409081902080546001600160f81b0316600160f81b179055517f789cf55be980739dad1d0699b93b58e806b51c9d96619bfa8fe0a28abaa7b30c90610d169083815260200190565b5f306001600160a01b037f000000000000000000000000000000000000000000000000000000000000000016148015612d7e57507f000000000000000000000000000000000000000000000000000000000000000046145b15612da857507f000000000000000000000000000000000000000000000000000000000000000090565b6109f8604080517f8b73c3c69bb8fe3d512ecc4cf759cc79239f7b179b0ffacaa9a75d522b39400f60208201527f0000000000000000000000000000000000000000000000000000000000000000918101919091527f000000000000000000000000000000000000000000000000000000000000000060608201524660808201523060a08201525f9060c00160405160208183030381529060405280519060200120905090565b5f805f8351604103612e86576020840151604085015160608601515f1a612e7888828585613223565b955095509550505050612e91565b505081515f91506002905b9250925092565b5f805f856001600160a01b03168585604051602401612eb892919061433c565b60408051601f198184030181529181526020820180516001600160e01b0316630b135d3f60e11b17905251612eed9190614354565b5f60405180830381855afa9150503d805f8114612f25576040519150601f19603f3d011682016040523d82523d5f602084013e612f2a565b606091505b5091509150818015612f3e57506020815110155b801561103d57508051630b135d3f60e11b90612f639083016020908101908401613fb2565b149695505050505050565b5f60018211612f7b575090565b816001600160801b8210612f945760809190911c9060401b5b680100000000000000008210612faf5760409190911c9060201b5b6401000000008210612fc65760209190911c9060101b5b620100008210612fdb5760109190911c9060081b5b6101008210612fef5760089190911c9060041b5b601082106130025760049190911c9060021b5b6004821061300e5760011b5b600302600190811c908185816130265761302661416b565b048201901c9050600181858161303e5761303e61416b565b048201901c905060018185816130565761305661416b565b048201901c9050600181858161306e5761306e61416b565b048201901c905060018185816130865761308661416b565b048201901c9050600181858161309e5761309e61416b565b048201901c90506130bd8185816130b7576130b761416b565b04821190565b90039392505050565b5f5b8183101561311d575f6130db84846132eb565b5f8781526020902090915065ffffffffffff86169082015465ffffffffffff16111561310957809250613117565b61311481600161406a565b93505b506130c8565b509392505050565b5f80848161313486600161406a565b8511801561315c575061060f60f31b6131508388016020015190565b6001600160f01b031916145b90505f61316c8215156002614223565b90505f8061317a838a61406a565b90505b878110156131d5575f61319b6131968784016020015190565b613305565b9050600f8160ff1611156131ba575f8097509750505050505050612265565b6131c5601084614223565b60ff90911601915060010161317d565b506001999098509650505050505050565b60605f6131f28361337d565b6040805160208082528183019092529192505f91906020820181803683375050509182525060208101929092525090565b5f80807f7fffffffffffffffffffffffffffffff5d576e7357a4501ddfe92f46681b20a084111561325c57505f915060039050826132e1565b604080515f808252602082018084528a905260ff891692820192909252606081018790526080810186905260019060a0016020604051602081039080840390855afa1580156132ad573d5f803e3d5ffd5b5050604051601f1901519150506001600160a01b0381166132d857505f9250600191508290506132e1565b92505f91508190505b9450945094915050565b5f6132f9600284841861436a565b61122d9084841661406a565b5f60f882901c602f8111801561331e5750603a8160ff16105b1561332c57602f1901610a07565b60608160ff16118015613342575060678160ff16105b156133505760561901610a07565b60408160ff16118015613366575060478160ff16105b156133745760361901610a07565b5060ff92915050565b5f60ff8216601f811115610a0757604051632cd44ac360e21b815260040160405180910390fd5b5f602082840312156133b4575f80fd5b81356001600160e01b03198116811461122d575f80fd5b5f602082840312156133db575f80fd5b5035919050565b5f81518084528060208401602086015e5f602082860101526020601f19601f83011685010191505092915050565b602081525f61122d60208301846133e2565b6001600160a01b0381168114610a1e575f80fd5b634e487b7160e01b5f52604160045260245ffd5b604051601f8201601f191681016001600160401b038111828210171561347257613472613436565b604052919050565b5f6001600160401b0382111561349257613492613436565b50601f01601f191660200190565b5f6134b26134ad8461347a565b61344a565b90508281528383830111156134c5575f80fd5b828260208301375f602084830101529392505050565b5f82601f8301126134ea575f80fd5b61122d838335602085016134a0565b5f805f806080858703121561350c575f80fd5b843561351781613422565b9350602085013561352781613422565b92506040850135915060608501356001600160401b03811115613548575f80fd5b613554878288016134db565b91505092959194509250565b5f6001600160401b0382111561357857613578613436565b5060051b60200190565b5f82601f830112613591575f80fd5b813561359f6134ad82613560565b8082825260208201915060208360051b8601019250858311156135c0575f80fd5b602085015b83811015610bb55780356135d881613422565b8352602092830192016135c5565b5f82601f8301126135f5575f80fd5b81356136036134ad82613560565b8082825260208201915060208360051b860101925085831115613624575f80fd5b602085015b83811015610bb5578035835260209283019201613629565b5f82601f830112613650575f80fd5b813561365e6134ad82613560565b8082825260208201915060208360051b86010192508583111561367f575f80fd5b602085015b83811015610bb55780356001600160401b038111156136a1575f80fd5b6136b0886020838a01016134db565b84525060209283019201613684565b5f805f80608085870312156136d2575f80fd5b84356001600160401b038111156136e7575f80fd5b6136f387828801613582565b94505060208501356001600160401b0381111561370e575f80fd5b61371a878288016135e6565b93505060408501356001600160401b03811115613735575f80fd5b61374187828801613641565b949793965093946060013593505050565b634e487b7160e01b5f52602160045260245ffd5b6008811061378257634e487b7160e01b5f52602160045260245ffd5b9052565b60208101610a078284613766565b5f80604083850312156137a5575f80fd5b8235915060208301356137b781613422565b809150509250929050565b803560ff81168114610e84575f80fd5b5f80604083850312156137e3575f80fd5b823591506137f3602084016137c2565b90509250929050565b5f8083601f84011261380c575f80fd5b5081356001600160401b03811115613822575f80fd5b602083019150836020828501011115613839575f80fd5b9250929050565b5f805f805f805f60c0888a031215613856575f80fd5b87359650613866602089016137c2565b9550604088013561387681613422565b945060608801356001600160401b03811115613890575f80fd5b61389c8a828b016137fc565b90955093505060808801356001600160401b038111156138ba575f80fd5b6138c68a828b016134db565b92505060a08801356001600160401b038111156138e1575f80fd5b6138ed8a828b016134db565b91505092959891949750929550565b5f805f805f60808688031215613910575f80fd5b85359450613920602087016137c2565b935060408601356001600160401b0381111561393a575f80fd5b613946888289016137fc565b90945092505060608601356001600160401b03811115613964575f80fd5b613970888289016134db565b9150509295509295909350565b65ffffffffffff81168114610a1e575f80fd5b5f602082840312156139a0575f80fd5b813561122d8161397d565b5f805f80606085870312156139be575f80fd5b843593506139ce602086016137c2565b925060408501356001600160401b038111156139e8575f80fd5b6139f4878288016137fc565b95989497509550505050565b5f805f8060808587031215613a13575f80fd5b84356001600160401b03811115613a28575f80fd5b613a3487828801613582565b94505060208501356001600160401b03811115613a4f575f80fd5b613a5b878288016135e6565b93505060408501356001600160401b03811115613a76575f80fd5b613a8287828801613641565b92505060608501356001600160401b03811115613a9d575f80fd5b8501601f81018713613aad575f80fd5b613554878235602084016134a0565b5f60208284031215613acc575f80fd5b813561122d81613422565b5f8151808452602084019350602083015f5b82811015613b07578151865260209586019590910190600101613ae9565b5093949350505050565b60ff60f81b8816815260e060208201525f613b2f60e08301896133e2565b8281036040840152613b4181896133e2565b606084018890526001600160a01b038716608085015260a0840186905283810360c08501529050613b728185613ad7565b9a9950505050505050505050565b5f805f8060808587031215613b93575f80fd5b84359350613ba3602086016137c2565b92506040850135613bb381613422565b915060608501356001600160401b03811115613548575f80fd5b5f805f60608486031215613bdf575f80fd5b8335613bea81613422565b92506020840135915060408401356001600160401b03811115613c0b575f80fd5b613c17868287016134db565b9150509250925092565b5f805f805f60a08688031215613c35575f80fd5b8535613c4081613422565b94506020860135613c5081613422565b935060408601356001600160401b03811115613c6a575f80fd5b613c76888289016135e6565b93505060608601356001600160401b03811115613c91575f80fd5b613c9d888289016135e6565b92505060808601356001600160401b03811115613964575f80fd5b5f805f8060608587031215613ccb575f80fd5b8435613cd681613422565b93506020850135925060408501356001600160401b038111156139e8575f80fd5b5f60208284031215613d07575f80fd5b813563ffffffff8116811461122d575f80fd5b5f8060408385031215613d2b575f80fd5b8235613d3681613422565b946020939093013593505050565b5f805f805f60a08688031215613d58575f80fd5b8535613d6381613422565b94506020860135613d7381613422565b9350604086013592506060860135915060808601356001600160401b03811115613964575f80fd5b600181811c90821680613daf57607f821691505b602082108103613dcd57634e487b7160e01b5f52602260045260245ffd5b50919050565b634e487b7160e01b5f52603260045260245ffd5b5f60208284031215613df7575f80fd5b81516001600160401b03811115613e0c575f80fd5b8201601f81018413613e1c575f80fd5b8051613e2a6134ad8261347a565b818152856020838501011115613e3e575f80fd5b8160208401602083015e5f91810160200191909152949350505050565b634e487b7160e01b5f52601160045260245ffd5b65ffffffffffff8281168282160390811115610a0757610a07613e5b565b5f60208284031215613e9d575f80fd5b815161122d8161397d565b65ffffffffffff8181168382160190811115610a0757610a07613e5b565b818382375f9101908152919050565b5f8151808452602084019350602083015f5b82811015613b075781516001600160a01b0316865260209586019590910190600101613ee7565b5f82825180855260208501945060208160051b830101602085015f5b83811015613f5c57601f19858403018852613f468383516133e2565b6020988901989093509190910190600101613f2a565b50909695505050505050565b608081525f613f7a6080830187613ed5565b8281036020840152613f8c8187613ad7565b90508281036040840152613fa08186613f0e565b91505082606083015295945050505050565b5f60208284031215613fc2575f80fd5b5051919050565b83815260608101613fdd6020830185613766565b826040830152949350505050565b5f60208284031215613ffb575f80fd5b8151801515811461122d575f80fd5b84815260ff84166020820152826040820152608060608201525f61103d60808301846133e2565b85815260ff8516602082015283604082015260a060608201525f61405860a08301856133e2565b8281036080840152610f8681856133e2565b80820180821115610a0757610a07613e5b565b8981526001600160a01b0389166020820152610120604082018190525f906140a79083018a613ed5565b82810360608401526140b9818a613ad7565b9050828103608084015280885180835260208301915060208160051b84010160208b015f5b8381101561411057601f198684030185526140fa8383516133e2565b60209586019590935091909101906001016140de565b505085810360a0870152614124818b613f0e565b93505050508560c08401528460e084015282810361010084015261414881856133e2565b9c9b505050505050505050505050565b81810381811115610a0757610a07613e5b565b634e487b7160e01b5f52601260045260245ffd5b60a081525f61419160a0830188613ed5565b82810360208401526141a38188613ad7565b905082810360408401526141b78187613f0e565b60608401959095525050608001529392505050565b60c081525f6141de60c0830189613ed5565b82810360208401526141f08189613ad7565b905082810360408401526142048188613f0e565b60608401969096525050608081019290925260a0909101529392505050565b8082028115828204841417610a0757610a07613e5b565b60ff8181168382160190811115610a0757610a07613e5b565b6001815b60018411156122655780850481111561427257614272613e5b565b600184161561428057908102905b60019390931c928002614257565b5f8261429c57506001610a07565b816142a857505f610a07565b81600181146142be57600281146142c8576142e4565b6001915050610a07565b60ff8411156142d9576142d9613e5b565b50506001821b610a07565b5060208310610133831016604e8410600b8410161715614307575081810a610a07565b6143135f198484614253565b805f190482111561432657614326613e5b565b029392505050565b5f61122d60ff84168361428e565b828152604060208201525f61122a60408301846133e2565b5f82518060208501845e5f920191825250919050565b5f8261438457634e487b7160e01b5f52601260045260245ffd5b50049056fea2646970667358221220f6d896484f55a2af96923e03b0090845a0107f3279a8b2bcc253c0e7337912a764736f6c634300081a0033",
  "linkReferences": {},
  "deployedLinkReferences": {}
}